:020000020000FC
:1000000008E00EBF0FE50DBF0FEF04BB01BB0BBB3C
:1000100000E00ABB00E010E020E030E037C009E07B
:1000200019E029E039E032C049B341704030B9F4F9
:10003000093038F0193038F0293040F0393050F0BC
:10004000E9CF039523C000E0139520C000E010E045
:1000500023951CC000E010E020E0339517C001306C
:1000600038F4113038F4213040F4313050F4D7CF27
:100070000A950CC009E01A9509C009E019E02A9513
:1000800005C009E019E029E03A9500C09EEF92BB57
:10009000832F0E94710085BB0E9467009DEF92BB79
:1000A000822F0E94710085BB0E9467009BEF92BB6C
:1000B000812F0E94710085BB0E94670097EF92BB61
:1000C000802F0E94710085BB0E946700ADCF51E078
:1000D00065E17FEF7A95F1F76A95D9F75A95C1F7FF
:1000E0000895803011F48FE30895813011F486E093
:1000F0000895823011F48BE50895833011F48FE474
:100100000895843011F486E60895853011F48DE663
:100110000895863011F48DE70895873011F487E053
:100120000895883011F48FE70895893009F48FE637
:02013000089530
:00000001FF
