:060000000C9444000C9476
:1000060000000C9400000C9400000C9400000C946A
:1000160000000C9400000C9400000C9400000C945A
:1000260000000C9400000C9400000C9400000C944A
:1000360000000C9400000C9400000C9400000C943A
:1000460000000C9400000C9400000C9400007072E8
:10005600657373204320746F20636C6561720000C2
:1000660080C001002D4E414E00494E460000110051
:100076006002540002007102660001007502680009
:100086000000F894EE27ECBBF1E0FBBFEBBFE5BF49
:100096008DE0A2E0BB27ED938A95E9F780E098E032
:1000A600A0E6ED930197E9F7E4E7F0E085919591F5
:1000B600009761F0A591B59105901590BF01F001EB
:1000C60005900D920197E1F7FB01F0CFEFE5EDBF4B
:1000D600E8E0EEBFC0E6D2E00C94DC00909884998C
:1000E60002C0E7E30895859902C0E8E3089586997A
:1000F60002C0E9E30895879902C0EFE20895909A55
:100106000E94C4029198849902C0E4E308958599F7
:1001160002C0E5E30895869902C0E6E3089587994B
:1001260002C0EAE20895919A0E94C40292988499C4
:1001360002C0E1E30895859902C0E2E30895869935
:1001460002C0E3E30895879902C0EDE20895929A0A
:100156000E94C4029398849902C0E3E608958599A3
:1001660002C0E0E30895869902C0EDE308958799F9
:1001760002C0EBE20895939A0E94C402AFCFBA93ED
:10018600AA931A930A9300E010E000E010E004300E
:10019600E0E01E0754F4F801AA81BB81AE0FBF1F31
:1001A600E0E0EC930F5F1F4FF2CF19810881249690
:1001B60008952997E0E0EF83E887EABBEBBBE7BB4E
:1001C600E8BBE4BBE5BBEFE0E1BBEFEFE2BBE0E0A1
:1001D600E3BFE2BFECBFEFBDEEBDEDBDECBDE7BDDD
:1001E600E6BDEBBDEABDE9BDE8BDE2BDE5BDE4BDEA
:1001F600E3BDE9BFE5BFE4BFEAB9E0E8E8B9E0E09E
:10020600E0BFE6B9EDB9E6BFA0E115D1E2D0909A1C
:10021600919A929A939A62DFEE83E883EF81F8854A
:100226003097D9F4AE81A03310F0AA3308F00CC091
:10023600DE010E944B028F01E0E00E94C802DE014F
:10024600E9D00E94CC0208C0AE81A33619F40E9400
:10025600D20202C00E94E1028DC0E130A0E0FA079E
:10026600E1F4AE81AB3231F0AD3221F0AF3211F0B4
:10027600AA3251F4EE81ED83E1E00E94C802AE811C
:10028600B4D00E94CC0208C0AE81A33619F40E94F5
:10029600D20202C00E94E1026DC0E230A0E0FA077D
:1002A60009F060C0AE81A03310F0AA3308F051C047
:1002B600DE010E944B029F01E2E00E94C802AE816D
:1002C60094D00E94CC02ED81F0E0EB32A0E0FA0778
:1002D60029F4F901E00FF11FAF0122C0ED32A0E0D1
:1002E600FA0729F4F801E21BF30BAF0119C0EA3251
:1002F600A0E0FA0731F4F901D8010E940803AF0122
:100306000FC0EF32A0E0FA0759F4022E032A31F0AB
:10031600F901D8010E942003AF0102C040E050E07D
:10032600E3E00E94C802ADE360D0E4E00E94C802A8
:100336005A934A93DE0113960E948202DE011196B9
:1003460069D0E0E0EA93A1E037D0A0E6B2E062D05F
:1003560008C0AE81A33619F40E94D20202C00E94E0
:10036600E10208C0AE81A33619F40E94D20202C08F
:100376000E94E1024CCFFFCFAA93E5B3EF70AE2FF8
:10038600E881E07FEA2BE5BB87E08A95F1F7AA9A38
:1003960087E08A95F1F7AA9887E08A95F1F776C003
:1003A600AA93A881E9DFE881E295E883A881E4DFE2
:1003B60083E48A95F1F76AC0AA93E881F0E0EF58E2
:1003C600FD4FE081A981AE0FEBDF59804880229670
:1003D6000895A2E00E94E502ACE0E2DFA1E00E94FF
:1003E600E502E0E04E2E5E2E0895AA93A881AA307B
:1003F60011F0571448F0E0E0EA934394A42DDCDFB3
:10040600A881AA3009F442C05394A89AA881C8DFEB
:10041600A8983CC0BA93AA931A93A981BA81ED9180
:10042600A983BA831E2FE03019F0A12FDEDFF5CFA6
:10043600188123960895AA93E4B3E06FE4BBA29AC9
:10044600A09AA19AAA98A898A9987880E881E058D5
:10045600E0937302E881E054E0937402A4E1B0E013
:100466000E94F2020E94EB020E94EB020E94EB0243
:10047600A0E282DF85E88A95F1F7A8E291DFA4E0A1
:100486008FDFA5E88DDFA6E08BDFA3DF2196089539
:10049600BA93AA93B981A881EC918A2FAE2F0E94B4
:1004A600B902A82FEE2311F01196F6CFE894EC913D
:1004B600ED3211F4689402C0EB3209F41196662706
:1004C6007727EC918A2FAE2F0E94B002A82FEE2339
:1004D60079F0FB01660F771F660F771F6E0F7F1F80
:1004E600660F771FED91FF27E0536E0F7F1FE9CF51
:1004F600FB011EF4E095F095319622960895BA9385
:10050600AA93A991B991E991F99130962AF4E095C7
:10051600F09531966DE26D93E89480E197E20DD007
:1005260088EE93E00AD084E6992707D08AE005D0C2
:100536006E2F10D066276C9308956627E817F90783
:1005460020F06395E81BF90BC9F7662311F416F042
:1005560008956894605D6D930895AA93E1E0F9911A
:10056600F03310F0FA3308F0EE270895AA93E1E08D
:10057600F991F03229F0F93010F0FE3008F0EE274C
:100586000895A2E3B0E00C94F202EA93A0E00C9482
:10059600DF01EF81F8853196EF83F8870895E0E073
:1005A600EF83E88700E010E020E030E040E050E034
:1005B600DE0111960E94C2000C94EC01A1E0B0E0AD
:1005C6000C94F2020E94D301A3E0B0E00C94F20274
:1005D600A0E30E94BF0185E88A95F1F70895109679
:1005E60039F088EE93E00197F1F7A8951197C9F7CE
:1005F6000895F195E195F0400895FA9FF02DEB9F4F
:10060600F00DEA9FE02DF10D08951CD0F6DF0EF4F3
:10061600F0DF08950024112490E1AA0FBB1F001CEF
:10062600111C0E1A1F0A18F40E0E1F1E01C0A1601F
:100636009A9599F7FD01D001089504D0EBDF0EF4E9
:10064600D8DF0895E894F7FF02C0D3DF6894B7FFB8
:1006560006C0A095B095119600F8039400FA089587
:00000001FF
