:0C0000000C943C000C9400000C940000D8
:10000C000C9400000C9400000C9400000C94000064
:10001C000C9400000C9400000C9400000C94000054
:10002C000C9400000C9400000C9400000C94000044
:10003C000C9400000C9400000C9400000C94000034
:10004C000C9400000C940000000080C001002D4EA8
:10005C00414E00494E4600000200040054000200CC
:10006C006C0256000100700258000000F894EE2754
:10007C00ECBBF1E0FBBFEBBFE5BFF8E1F1BDE1BDCF
:10008C008DE0A2E0BB27ED938A95E9F780E098E03C
:10009C00A0E6ED930197E9F7E4E6F0E08591959100
:1000AC00009761F0A591B59105901590BF01F001F5
:1000BC0005900D920197E1F7FB01F0CFEFE5EDBF55
:1000CC00E8E0EEBFC0E6D2E00C946C00EFEFE4BBCE
:1000DC00EFE0E1BBE0E0E5BBA0E1BBD09AD033D0D0
:1000EC001E2F1F3F71F12FD0EF3FE9F70E945B01EC
:1000FC00A12FA05D9AD00E945F01FF93EF93DF01C7
:10010C000E949B02A0E0B0E080E291E40E943B02DE
:10011C00AF91BF910E94A1020E945F01FF93EF93E8
:10012C00DF010E949B02DF01CB01E12FF0E00E9476
:10013C0096020E94B8010E94EB01AF91BF910E9400
:10014C00A102CDCFFFCF1A931FEF909A91980E94E6
:10015C006701849B02C017E006C0859B02C018E0B3
:10016C0002C0869919E09098919A0E946701849B2D
:10017C0002C014E006C0859B02C015E002C086993F
:10018C0016E090989198929A93980E946D01849B96
:10019C0002C011E006C0859B02C012E002C0869925
:1001AC0013E0909891989298939A0E946D0185997A
:1001BC0010E0E12F19910895AA93E5B3EF70AE2FDB
:1001CC00E881E07FEA2BE5BB85E08A95F1F7AA9AF6
:1001DC008DE08A95F1F7AA988DE08A95F1F763C0C6
:1001EC00AA93A881E9DFE881E295E883A881E4DF9E
:1001FC0085E88A95F1F757C0AA93E881F0E0E459B5
:10020C00FD4FE081A981AE0FEBDF798068802296EB
:10021C000895A2E00E947101ACE0E2DFA1E00E942F
:10022C007101E0E06E2E7E2E0895AA93A881AA306B
:10023C0011F0791440F0E0E0EA936394A62DDCDF32
:10024C00A881AA3081F17394A89AA881C9DFA898D3
:10025C002AC0AA93E4B3E06FE4BBA29AA09AA19A35
:10026C00AA98A898A9989880E881E058E0936E0223
:10027C00E881E054E0936F020E945B010E947701D9
:10028C000E9477010E947701A0E296DF88EC90E053
:10029C000197F1F7A8E2A4DFA4E0A2DFA5E8A0DFB4
:1002AC00A6E09EDFB6DF21960895A4E1B0E00C94A1
:1002BC007F01F201A0E6B2E00E949102EA0FFB1F5F
:1002CC00089592989398A5E0B0E00C947F01A5E076
:1002DC00B0E00C947F010E94F600A3E0B0E00C9417
:1002EC007F01A0E30E94E20088EC90E00197F1F717
:1002FC000895109639F080ED97E00197F1F7A895E5
:10030C001197C9F70895552342F4503811F4E0FFC2
:10031C0004C03196691F791F6BF050E8572711F410
:10032C005F9391C05F3F31F0660F000C5795679556
:10033C00752F08955F9300200AF091C08AC050E891
:10034C00192E1522880F991F9527550F879550E860
:10035C00072E0522660F771F7527550F6795089591
:10036C00689401C0E894309760407040B1F000246C
:10037C0026F0772312F40094C6D0172E7EE11120BC
:10038C0032F07A95EE0FFF1F661F111CF9CFEF2F7D
:10039C00F62F612D5F93C1DF5F9108954F93AF01ED
:1003AC00FD01DA01AB01BC01CA01402D012C142E58
:1003BC004F910895EA0FFB1F681F0895E095F09583
:1003CC006095EF5FFF4F6F4F08955F93B8DF9038E4
:1003DC0039F1703821F1572F591B2BF112F4DEDF54
:1003EC00FACF583118F0AA27BB278827583028F0A5
:1003FC00AB2FB82F88275850F9CF552329F0869565
:10040C00B795A7955A95D9F7502D512572F0D2DF93
:10041C0038F46795F795E795739513F420C0BEDF14
:10042C007CDF5F910895D8F7FBCFEA1BFB0B680BC1
:10043C0051F010F40094C2DF662392F3EE0FFF1F0D
:10044C00661F7A95CBF7EE27FF27662777275F91F4
:10045C000895EFEFFFEF6FE77FEF5F910895EFEFF8
:10046C00FFEF6FE77FE75F9108955F9368DF703868
:10047C0051F3903841F301240894791F23F41CF3B1
:10048C0000203AF3ECCF0F921F932F933F934F938F
:10049C00112722279927689FA0018F9F302D410D8E
:1004AC00591F6B9F300D411D591F8E9F27D0BF9F29
:1004BC0025D06A9F23D0BE9F1DD0AF9F1BD0AE9F6F
:1004CC00110D291F391F491F591FE32FF42F652FB9
:1004DC00522F4F913F912F911F910F9066232AF02D
:1004EC00550FEE1FFF1F661F02C073954BF20BDFFB
:1004FC005F910895100D211D391F02C0200D311D73
:10050C00491F591F0895F09560957095E195FF4F1F
:10051C006F4F7F4F0895EE0FFF1FEE0FFF1F0895D3
:10052C006F2F660F660B762F0895ED91FD916D91EF
:10053C007C9113970895ED93FD936D937C9308959F
:00000001FF
